:0400000080316E28B5
:100008007E14803120007F08F50011191111911D0F
:10001800692891112400971F45289616141C6628F4
:10002800941A24281108F4007408F800F90183319F
:100038009F238031003A0319662824009612662807
:10004800781866287A087902031833281108F4000A
:100058007908203E860087017408810096120130D5
:10006800F4007408F90779087A06031D6628F9016F
:100078008231EB228031003A031966282400961653
:100088006628151E781C662879087A06031D5628E6
:100098007A08031D161B53288531E9258031FA019A
:1000A800240065287A087902031865287908203E13
:1000B80086008701010891000130F4007408F907EF
:1000C800662891012400151E151675082000FF00EA
:1000D8007E1009008031702860308400203085004F
:1000E8009030FE000130FF00853191258031F60106
:1000F800F701F801F901FA01203084000030850089
:100108001B30FE000030FF00853191257E10200055
:100118008131DB2920003508BF003F08C0009C2939
:1001280021008E1722000E128E100E138D128531AB
:10013800D6258031B8302000BB000B30BC0085319B
:10014800692580314D298531BE258031003A031952
:10015800A9294D293819B3283403031DB7280130BC
:10016800BF003F08B507B401A92922000E128E105E
:100178000E138D168531B425803120003811C83012
:10018800BB000030BC008531692580314D290C1D2C
:10019800D5286430BB000030BC008531692580312A
:1001A8004D298531BE258031003A0319A929083027
:1001B80009298531BE258031003A0319EC280A3017
:1001C8002000BB000030BC008531692580314D29F5
:1001D80020000C19A929053073298531BE258031E5
:1001E800003A0319A92922000E16FA302000BB0094
:1001F8000030BC008531692580314D298531BE2507
:100208008031003A03190B2909302000BE2920004B
:100218000E1DA9290530BB000030BC0085316925B9
:1002280080314D298531BE258031003A0319A9292D
:1002380022000E1796302000BB000030BC0085312C
:10024800692580314D298531BE258031003A031951
:10025800A92922008E1485310B2580310D30722991
:1002680021008E138531B425803164302000BB0015
:100278000030BC008531692580314D298531BE2586
:100288008031003A0319A92921008E1785310B25E1
:10029800803101302000BF003F08B507A929381D6B
:1002A8005E2938110E30BF003F08B5000630BF0088
:1002B8003F08B700853150258031A92922000E1248
:1002C8008E100E138531B425803164302000BB00B8
:1002D8000030BC0085316925803107302000BF001F
:1002E8003F08B500A9298531BE258031003A031998
:1002F800A92920000E1D932902303406031D8D29DB
:10030800B501B50A0A30BF003F08B700B401B40A06
:10031800A9290E30BF003F08B50002309629B50163
:10032800B50A0330BF003F08B700A9290B30BE2922
:100338003508FF3E031C9A2984000F300402031875
:100348009A2985310435323E820007302000350273
:1003580003180E1CB8293A0A0319B6290130BF0040
:100368003F08BA070730BE290730350203180C19B1
:10037800C2290830BF003F08B700D8290930350224
:10038800031C08000F303506031908000E19080071
:100398007030BB001730BC00853169250F30200054
:1003A800BF003F08B5000800B501B50A08000130D4
:1003B80032009900FF3021008C00FF308D00FF30A3
:1003C8008E0023008C018D018E012000B601831957
:1003D800031EF92931009B18F32920003614310037
:1003E8001B180F2A2000B6140F2A031AFE293615E7
:1003F80064000F2A31009B19032A2000B61531002A
:100408001B19082A2000361631001B1B0D2A9B1FBA
:100418000F2A2000B61622008E1321008E17220004
:100428000E1221000E1222008E118E160C162100BB
:100438008E118E120C1222008E1021008E102200B6
:100448000E1321000E1322008D1221008D122000A0
:100458008D1F312A22008D17332A22008D13210087
:100468008D13063020009F00FE309E009D014F3006
:1004780028009700FA30960095014E309E00FA3019
:100488009D009C0125009F019F3093009F3097009D
:100498009F3026009700C03025009100C03095009D
:1004A800C030260095003D002308E0390D38A30030
:1004B8002508E0390C38A5001408E0390F389400F5
:1004C8008531B42581312000B001B201AF018D1F03
:1004D8002F148531DD25813102308531A9258131FF
:1004E8002000C1004108B100310A031D7F2AAF1462
:1004F8002F1422008D1390302000AB000130AC0087
:10050800B801B901AD01AE0197019501FA30960025
:1005180044309800971730309B00C1309C00403021
:1005280024009200E03093002000911124009417D9
:1005380001309600073097003630950019303D009D
:100548009C0018309E0021009115111504302000E0
:10055800C1004108B500B3010330C1004108B7002C
:10056800B401BA010830210097000B178B176400FB
:1005780084315124813180318E208131200033082B
:100588000319CB2A3308C1004108B500B301031091
:100598002F1C0314031CD32A22008D17D52A2200EE
:1005A8008D13023020003206031DDF2A85317F2596
:1005B80081310330E62A03303206031DBB2A853118
:1005C8009D2581312000C1004108B200BB2A7A2B49
:1005D80020002008F0007008A8002108F00070082A
:1005E800A9002208F0007008AA008431E3248231AF
:1005F8009D2B20002008F0007008B7003703031D6A
:10060800072B0B300C2B02303706031D102B0E3036
:10061800F0007008B3009D2B03303706031D172B1D
:10062800B301B30A9D2B04303706031D202BB301F9
:10063800B30AB401B40A9D2B0A303706031D9D2B5B
:100648000230F0007008B4009D2B20002008F00054
:100658007008F6002108F0007008F7009D2B2000B4
:100668002003031D392B2F149D2B02302006031D58
:100678009D2B2F109D2B20002108F0007008B10041
:100688000230F0007008B20020002008F000700866
:10069800B0009D2B20002008F0007008AB00210856
:1006A800F0007008AC009D2B6030F0002030F100A5
:1006B80020002B087007F2002C08713DF300720827
:1006C800860073088700200881000130AB070030DE
:1006D800AC3D9D2B20002008F0007008AD002108DB
:1006E800F0007008AE009D2B013008007808403AF1
:1006F8000319EC2A023A0319FD2A063A0319292B91
:10070800023A0319332B0E3A03193F2B023A031905
:10071800482B063A03194E2B023A0319582B1E3A56
:1007280003199D2B023A03199D2B063A03196E2BC8
:10073800782B00300800422C03303B2C0330F100AA
:100748007108FA0020002808F1007108A0002908A3
:10075800F1007108A1002A08F1007108A2004F2CCD
:1007680020003708F1007108A0002E2C7608F1004F
:1007780071082000A0007708F1007108A1003A2C48
:1007880020002F08F1007108A0002E2C200032084C
:100798002B2C023020003202031C3A2C00300800B7
:1007A800023020003202031CDB2B003008008531A8
:1007B800E3258331200030088531C7258331F100D6
:1007C80071082000A0000130F1007108B0072E2C3C
:1007D800023020003202031C2E2C003008002000BA
:1007E8002B08F1007108A0002C08F1007108A10085
:1007F8003A2C013020002C02903003192B02031CE4
:10080800072C00300800781C2E2C6030F1002030B6
:10081800F2002B08710786002C08723D870001083A
:10082800F3007308A0000130AB070030AC3D2E2C5C
:100838007630F10071082000A0003630F100710810
:10084800A100A201A30104303B2C20003608F100CE
:100858007108A000FA01FA0A4F2C20002D08F100B7
:100868007108A0002E08F1007108A1000230F10003
:100878007108FA004F2CFA01003008007808C03ED1
:10088800031C3F2C84001630040203183F2C8431CB
:1008980004358F3E8200013008002000921F0800B6
:1008A800921339080319612C0130BB003B08B907C2
:1008B80014303902031C0800B901381C662C2000CA
:1008C800B814682C2000B8108531CF258431200059
:1008D800BB0038083B06FE393B06B800B81C381C7C
:1008E8007D2C3815B901B90A1430AD000030AE00BE
:1008F8000800B8183818832CB901B90A0800381C40
:1009080008002D0A03192E0A031908000130AD0743
:100918000030AE3D08008331A02B8331A22B8331F8
:10092800B92B8331B42B8331C32B8331BA2B833159
:10093800C92B8331C42B8331CD2B8331CA2B83310F
:10094800EC2B8331D42B8331FC2B8331F32B833174
:10095800FD2B8331FD2B8431272C84311C2C8431D1
:100968002E2C8431292C84313A2C8431312C2000CE
:10097800290925009200200028092500960020005A
:100988002A092600960020002808031DCE2C2100E5
:100998008E15D02C21008E1120002908031DD72C7C
:1009A80021008E16D92C21008E1220002A08031D42
:1009B800E02C21000C16080021000C120800200071
:1009C800290925009200200028092500960020000A
:1009D8002A092600960020002808031DF62C21006D
:1009E8008E15F82C21008E1120002908031DFF2CDC
:1009F80021008E16012D21008E1220002A08031DC9
:100A0800082D21000C16080021000C120800853161
:100A1800DD25853100308531A92585312000BC00D0
:100A28003C08F60001308531A92585312000BC003D
:100A38003C08F700760A031D282D770A031D282D88
:100A48004C30F6001D30F70005307702DC30031912
:100A5800760203180800F601F7010800803194288F
:100A68008031A7288031AE288031B9288031CB2841
:100A78008031DD288031F128813102298131162920
:100A88008131272981313429813142298131532902
:100A980081316229813177297608770403190800A2
:100AA8002000921C5C2D92100130F6020030F73BBA
:100AB80076087704031D08000E30BB003B08B5001C
:100AC8000530BB003B08B700080020001B101110C0
:100AD8000130BB35BC0D890B6D2D3B08BD003D08B1
:100AE800BE003E0999003C08BD003D08BE003E0915
:100AF8009A001B1408008531DD25310015152000EA
:100B08003008310091002000310831009300553041
:100B18009600AA30960095140800640080010131FF
:100B28000130FE020030FF3B7F087E0403190034C9
:100B3800922D3100951CA22D033008001511951D2A
:100B4800A72D01300800003008002000BB0031004C
:100B5800151120003B0831009100151413080800F6
:100B6800FF302000BB003B08A800A901AA0184317E
:100B7800BB24080020001118C32D003008001110F4
:100B88001B1001300800F0003100151170089100A9
:100B9800151413080800031020008C1E03140030DD
:100BA800093D08002000A801A901AA018431BB243D
:100BB80008003100151795127030920008003100B6
:0C0BC8001517951270309200080008000C
:020000040001F9
:08000E00ECFFFFFFFFFFFFFF05
:00000001FF
