:0400000080316E28B5
:100008007E14803120007F08F50011191111911D0F
:10001800692891112400971F45289616141C6628F4
:10002800941A24281108F4007408F800F9018231A0
:10003800A2228031003A0319662824009612662805
:10004800781866287A087902031833281108F4000A
:100058007908203E860087017408810096120130D5
:10006800F4007408F90779087A06031D6628F9016F
:1000780083313A238031003A031966282400961602
:100088006628151E781C662879087A06031D5628E6
:100098007A08031D161B5328853110258031FA0173
:1000A800240065287A087902031865287908203E13
:1000B80086008701010891000130F4007408F907EF
:1000C800662891012400151E151675082000FF00EA
:1000D8007E1009008031702860308400203085004F
:1000E8009030FE000130FF008431B8248031F601E1
:1000F800F701F801F901FA01203084000030850089
:100108001530FE000030FF008431B8247E10200036
:100118008131A32920003208B9003908BA007529AD
:1001280022000E128E100E138D128431FD248031A0
:10013800D0302000B5000730B60084317B248031F0
:100148003F298431E5248031AC288431F62480317C
:10015800003A031982293F2922000E128E100E132D
:100168008D168431DB248031C8302000B500003082
:10017800B60084317B2480313F290C1DCB286430A4
:10018800B5000030B60084317B2480313F298431AA
:10019800E5248031003A031D9F2982298431E52412
:1001A8008031003A0319E1280A302000B5000030F8
:1001B800B60084317B2480313F2920000C19822924
:1001C80005306E298431E5248031003A03198229EB
:1001D80022000E16FA302000B5000030B600843137
:1001E8007B2480313F298431E5248031003A031D86
:1001F8009F2920000E1D82290530B5000030B60069
:1002080084317B2480313F298431E5248031003AD0
:100218000319822922000E1796302000B5000030FD
:10022800B60084317B2480313F298431E524803134
:10023800003A0319822922008E148331C4238031A5
:100248000D30622921008E138431DB248031643023
:100258002000B5000030B60084317B2480313F296E
:100268008431E5248031003A0319822921008E1750
:100278008331C423803101302000B9003908B20726
:1002880082298431F6248031003A031950290B3031
:100298002000B9003908B2008431912480318229C4
:1002A80022000E128431DB24803164302000B50036
:1002B8000030B60084317B248031073020006E295D
:1002C8008431E5248031003A0319822920000E1D6B
:1002D80072290E30B9003908B2008229B201B20A77
:1002E80082293208FF3E031C9F2984000F30040234
:1002F80003189F29843104355D3E820007302000B1
:100308003202031C89290C1D9F2909303202031C63
:1003180008000F303206031908000E190800EC30E7
:10032800B5001330B60084317B240F302000B900AB
:100338003908B20008002000B201B20A08000130F2
:1003480032009900FF3021008C00FF308D00FF3013
:100358008E0023008C018D018E012000B3018319CA
:10036800031EC12931009B18BB292000331431001A
:100378001B18D7292000B314D729031AC629331507
:100388006400D72931009B19CB292000B31531000F
:100398001B19D0292000331631001B1BD5299B1FA0
:1003A800D7292000B31622008E1321008E172200B1
:1003B8000E1221000E1222008E118E160C1621002C
:1003C8008E118E120C1222008E1021008E10220027
:1003D8000E1321000E1322008D1221008D12200011
:1003E8008D1FF92922008D17FB2922008D1321006A
:1003F8008D13063020009F00FE309E009D014F3077
:1004080028009700FA309600950125009F019F303B
:1004180093009F3097009F3026009700C03025003A
:100428009100C0309500C030260095003D0023089B
:10043800E0390D38A3002508E0390C38A500140868
:10044800E0390F3894008431DB2481312000AE017B
:10045800B001AD018D1F2D14853104258131023085
:100468008431D02481312000BB003B08AF002F0A23
:10047800031D422AAD142D1422008D139030200044
:10048800AB000130AC0097019501FA30960044307A
:100498009800971730309B00C1309C0040302400F2
:1004A8009200E0309300200091112400941701304D
:1004B8009600073097003630950019303D009C00B3
:1004C80018309E0021009115111504302000BB0042
:1004D8003B08B200B101B4010830210097000B17A6
:1004E8008B17640080318E20813120003108031978
:1004F800822A3108BB003B08B200B10103102D1C51
:100508000314031C8A2A22008D178C2A22008D13BB
:10051800023020003006031D962A8431A62481313A
:1005280003309D2A03303006031D752A8431C42404
:1005380081312000BB003B08B000752A2B2B03300B
:10054800032B0330F1007108FA0020002808F1009D
:100558007108A0002908F1007108A1002A08F1001B
:100568007108A200382B20003308F1007108A000A0
:10057800252B7608F10071082000A0007708F1000B
:100588007108A100022B20002D08F1007108A000BD
:10059800252B20003008F1007108A000252B02301F
:1005A80020003002031C022B00300800023020001B
:1005B8003002031CE12A0030080085310A25823107
:1005C80020002E088431EE248231F10071082000C9
:1005D800A0000130F1007108AE07252B0230200081
:1005E8003002031C252B0030080020002B08F100E6
:1005F8007108A0002C08F1007108A1000230F10078
:100608007108FA00382B013020002C0290300319B1
:100618002B02031C112B00300800781C252B60309E
:10062800F1002030F2002B08710786002C08723D7B
:1006380087000108F3007308A0000130AB07003001
:10064800AC3DFA01FA0A382BFA01003008007808A4
:10065800C03E031C282B8400103004020318282BEA
:10066800843104353D3E820001300800A82B20006B
:100678002008F0007008A8002108F0007008A90000
:100688002208F0007008AA00843115248331C22B97
:1006980020002008031D522B0B30562B2003031D6E
:1006A8005A2B0E30F0007008B100C22B0230200621
:1006B800031DC22BB101B10AC22B20002008F00093
:1006C8007008F6002108F0007008F700C22B20001F
:1006D8002003031D712B2D14C22B02302006031D8D
:1006E800C22B2D10C22B20002108F0007008AF008B
:1006F8000230F0007008B00020002008F0007008F8
:10070800AE00C22B20002008F0007008AB002108C2
:10071800F0007008AC00C22B6030F0002030F1000F
:1007280020002B087007F2002C08713DF3007208B6
:10073800860073088700200881000130AB0700306D
:10074800AC3DC22B013008007808403A03193B2B16
:10075800023A03194C2B063A0319612B023A031982
:100768006B2B0E3A0319772B023A0319802B063AA2
:100778000319862B023A0319902BA62B0030080088
:1007880085310425833100308431D0248331200021
:10079800B6003608F60001308431D02483312000B9
:1007A800B6003608F700760A031DE12B770A031D09
:1007B800E12B4C30F6001D30F70005307702DC30B5
:1007C80003197602031808004C30F6001D30F700B4
:1007D800080020002909250092002000280925008A
:1007E800960020002A092600960020002808031DEC
:1007F800002C21008E15022C21008E1120002908C2
:10080800031D092C21008E160B2C21008E122000AE
:100818002A08031D122C21000C16080021000C12B6
:100828000800200029092500920020002809250039
:10083800960020002A092600960020002808031D9B
:10084800282C21008E152A2C21008E112000290821
:10085800031D312C21008E16332C21008E1220000E
:100868002A08031D3A2C21000C16080021000C123E
:1008780008008231A32A8231A52A8231BC2A82311A
:10088800B72A8231C62A8231BD2A8231CC2A8231E6
:10089800C72A8231D32A8231CD2A8231F22A823183
:1008A800DA2A8331022B8231F92A8331072B8331EB
:1008B800072B803194288031A5288031A9288031E0
:1008C800B0288031C1288031D2288031E628803193
:1008D800F728813108298131192981312629813167
:1008E80034298131452981315429813164292000F5
:1008F8001B1011100130B535B60D890B7F2C35084A
:10090800B7003708B800380999003608B700370823
:10091800B80038099A001B140800760877040319F0
:1009280008002000921C9D2C92100130F602003025
:10093800F73B76087704031D08000E30B50035082C
:10094800B2000800853104253100151520002E0855
:100958003100910020002F08310093005530960097
:10096800AA30960095140800640080010131013016
:10097800FE020030FF3B7F087E0403190034B92CC7
:100988003100951CC92C033008001511951DCE2C7B
:1009980001300800003008002000B50031001511B2
:1009A8002000350831009100151413080800FF30A5
:1009B8002000B5003508A800A901AA018331ED235C
:1009C800080020001118EA2C0030080011101B1034
:1009D80001300800F000310015117008910015145D
:1009E80013080800031020008C1E03140030093D72
:1009F80008002000A801A901AA018331ED230800FD
:100A08003100151795127030920008003100151743
:0A0A180095127030920008000800EB
:020000040001F9
:08000E00ECFFFEFFFFDFFFFF26
:00000001FF
