:0400000080316E28B5
:100008007E14803120007F08F50011191111911D0F
:10001800692891112400971F45289616141C6628F4
:10002800941A24281108F4007408F800F9018231A0
:10003800DD228031003A03196628240096126628CA
:10004800781866287A087902031833281108F4000A
:100058007908203E860087017408810096120130D5
:10006800F4007408F90779087A06031D6628F9016F
:1000780083318F238031003A0319662824009616AD
:100088006628151E781C662879087A06031D5628E6
:100098007A08031D161B53288531D1258031FA01B2
:1000A800240065287A087902031865287908203E13
:1000B80086008701010891000130F4007408F907EF
:1000C800662891012400151E151675082000FF00EA
:1000D8007E1009008031702860308400203085004F
:1000E8009030FE000130FF00853179258031F6011E
:1000F800F701F801F901FA01203084000030850089
:100108001B30FE000030FF00853179257E1020006D
:100118008131CD2920003508BF003F08C0009C2947
:1001280021008E1722000E128E100E138D128531AB
:10013800BE258031B8302000BB000B30BC008531B3
:10014800512580314D298531A6258031003A031982
:10015800A9294D293819B3283403031DB7280130BC
:10016800BF003F08B507B401A92922000E128E105E
:100178000E138D1685319C25803120003811C8302A
:10018800BB000030BC008531512580314D290C1D44
:10019800D5286430BB000030BC0085315125803142
:1001A8004D298531A6258031003A0319A92908303F
:1001B80009298531A6258031003A0319EC280A302F
:1001C8002000BB000030BC008531512580314D290D
:1001D80020000C19A929053073298531A6258031FD
:1001E800003A0319A92922000E16FA302000BB0094
:1001F8000030BC008531512580314D298531A62537
:100208008031003A03190B2909302000B029200059
:100218000E1DA9290530BB000030BC0085315125D1
:1002280080314D298531A6258031003A0319A92945
:1002380022000E1796302000BB000030BC0085312C
:10024800512580314D298531A6258031003A031981
:10025800A92922008E148431F32480310D307229AB
:1002680021008E1385319C25803164302000BB002D
:100278000030BC008531512580314D298531A625B6
:100288008031003A0319A92921008E178431F324FB
:10029800803101302000BF003F08B507A929381D6B
:1002A8005E2938110B30BF003F08B5000630BF008B
:1002B8003F08B700853138258031A92922000E1260
:1002C8008E100E1385319C25803164302000BB00D0
:1002D8000030BC0085315125803107302000BF0037
:1002E8003F08B500A9298531A6258031003A0319B0
:1002F800A92920000E1D932902303406031D8D29DB
:10030800B501B50A0A30BF003F08B700B401B40A06
:10031800A9290E30BF003F08B50002309629B50163
:10032800B50A0330BF003F08B700A9290B30B02930
:100338003508FF3E031C9A2984000F300402031875
:100348009A29853104351A3E82000730200035028B
:1003580003180C19B4290830BF003F08B700CA2990
:1003680009303502031C08000F3035060319080050
:100378000E1908007030BB001730BC0085315125BC
:100388000F302000BF003F08B5000800B501B50ACE
:100398000800013032009900FF3021008C00FF3046
:1003A8008D00FF308E0023008C018D018E0120000E
:1003B800B6018319031EEB2931009B18E52920009B
:1003C800361431001B18012A2000B614012A031A1A
:1003D800F02936156400012A31009B19F5292000FF
:1003E800B61531001B19FA292000361631001B1BDF
:1003F800FF299B1F012A2000B61622008E13210018
:100408008E1722000E1221000E1222008E118E1657
:100418000C1621008E118E120C1222008E10210053
:100428008E1022000E1321000E1322008D122100BF
:100438008D1220008D1F232A22008D17252A2200C5
:100448008D1321008D13063020009F00FE309E0082
:100458009D014F3028009700FA30960095014E30E4
:100468009E00FA309D009C0125009F019F3093005B
:100478009F3097009F3026009700C03025009100DC
:10048800C0309500C030260095003D002308E039B3
:100498000D38A3002508E0390C38A5001408E03908
:1004A8000F38940085319C2581312000B001B201BC
:1004B800AF018D1F2F148531C5258131023085315B
:1004C800912581312000C1004108B100310A031D86
:1004D800712AAF142F1422008D1390302000AB0026
:1004E8000130AC00B801B901AD01AE019701950129
:1004F800FA30960044309800971730309B00C1308E
:100508009C00403024009200E030930020009111BC
:100518002400941701309600073097003630950074
:1005280019303D009C0018309E00210091151115CE
:1005380004302000C1004108B500B3010330C100F8
:100548004108B700B401BA010830210097000B1721
:100558008B17640084313924813180318E208131B8
:10056800200033080319BD2A3308C1004108B5002B
:10057800B30103102F1C0314031CC52A22008D1776
:10058800C72A22008D13023020003206031DD12A0B
:100598008531672581310330D82A03303206031D9F
:1005A800AD2A8531852581312000C1004108B2007E
:1005B800AD2A802B0330792B0330F1007108FA0043
:1005C80020002808F1007108A0002908F10071082E
:1005D800A1002A08F1007108A2008D2B200037081D
:1005E800F1007108A0006C2B7608F100710820005A
:1005F800A0007708F1007108A100782B20002F08CF
:10060800F1007108A0006C2B20003208692B023021
:1006180020003202031C782B003008000230200032
:100628003202031C192B003008008531CB2582319A
:10063800200030088531AF258231F1007108200093
:10064800A0000130F1007108B0076C2B02302000C7
:100658003202031C6C2B0030080020002B08F1002C
:100668007108A0002C08F1007108A100782B013056
:1006780020002C02903003192B02031C452B00305C
:100688000800781C6C2B6030F1002030F2002B0839
:10069800710786002C08723D87000108F300730873
:1006A800A0000130AB070030AC3D6C2B7630F10078
:1006B80071082000A0003530F1007108A100A201E6
:1006C800A3010430792B20003608F1007108A0003E
:1006D800FA01FA0A8D2B20002D08F1007108A000FC
:1006E8002E08F1007108A1000230F1007108FA002B
:1006F8008D2BFA01003008007808C03E031C7D2BC2
:1007080084001630040203187D2B84310435773EAB
:10071800820001300800142C20002008F000700826
:10072800A8002108F0007008A9002208F00070084D
:10073800AA008431CB248331372C20002008F00014
:100748007008B7003703031DAB2B0B30B02B0230FA
:100758003706031DB42B0E30F0007008B300372C99
:1007680003303706031DBB2BB301B30A372C043003
:100778003706031DC42BB301B30AB401B40A372CDE
:100788000A303706031D372C0230F0007008B40019
:10079800372C20002008F0007008F6002108F0002F
:1007A8007008F700372C20002003031DDD2B2F14C1
:1007B800372C02302006031D372C2F10372C200031
:1007C8002108F0007008B1000230F0007008B20093
:1007D80020002008F0007008B000372C2000200806
:1007E800F0007008AB002108F0007008AC00372C4E
:1007F8006030F0002030F10020002B087007F20074
:100808002C08713DF30072088600730887002008E1
:1008180081000130AB070030AC3D372C01300800B7
:100828007808403A0319902B023A0319A12B063A8B
:100838000319CD2B023A0319D72B0E3A0319E32BD0
:10084800023A0319EC2B063A0319F22B023A031960
:10085800FC2B1E3A0319372C023A0319372C063A97
:100868000319372C122C003008002000921F0800B2
:10087800921339080319492C0130BB003B08B9070A
:1008880014303902031C0800B901381C4E2C200012
:10089800B814502C2000B8108531B72584312000B9
:1008A800BB0038083B06FE393B06B800B81C381CAC
:1008B800652C3815B901B90A1430AD000030AE0006
:1008C8000800B81838186B2CB901B90A0800381C88
:1008D80008002D0A03192E0A031908000130AD0774
:1008E8000030AE3D08008231DE2A8231E02A8231B2
:1008F800F72A8231F22A8331012B8231F82A833197
:10090800072B8331022B83310B2B8331082B833147
:100918002A2B8331122B83313A2B8331312B8331AC
:100928003B2B83313B2B8331652B83315A2B83310E
:100938006C2B8331672B8331782B83316F2B20000D
:10094800290925009200200028092500960020008A
:100958002A092600960020002808031DB62C21002D
:100968008E15B82C21008E1120002908031DBF2CDC
:1009780021008E16C12C21008E1220002A08031D8A
:10098800C82C21000C16080021000C1208002000B9
:10099800290925009200200028092500960020003A
:1009A8002A092600960020002808031DDE2C2100B5
:1009B8008E15E02C21008E1120002908031DE72C3C
:1009C80021008E16E92C21008E1220002A08031D12
:1009D800F02C21000C16080021000C1208008531AB
:1009E800C525843100308531912584312000BC0033
:1009F8003C08F60001308531912584312000BC0087
:100A08003C08F700760A031D102D770A031D102DE8
:100A18004C30F6001D30F70005307702DC30031942
:100A2800760203180800F601F701080080319428BF
:100A38008031A7288031AE288031B9288031CB2871
:100A48008031DD288031F128813102298131162950
:100A58008131272981313429813142298131532932
:100A680081316229813177297608770403190800D2
:100A78002000921C442D92100130F6020030F73B02
:100A880076087704031D08000E30BB003B08B5004C
:100A98000530BB003B08B700080020001B101110F0
:100AA8000130BB35BC0D890B552D3B08BD003D08F9
:100AB800BE003E0999003C08BD003D08BE003E0945
:100AC8009A001B1408008531C52531001515200032
:100AD8003008310091002000310831009300553072
:100AE8009600AA3096009514080064008001013130
:100AF8000130FE020030FF3B7F087E0403190034FA
:100B08007A2D3100951C8A2D033008001511951D8A
:100B18008F2D01300800003008002000BB00310094
:100B2800151120003B083100910015141308080026
:100B3800FF302000BB003B08A800A901AA018431AE
:100B4800A324080020001118AB2D00300800111054
:100B58001B1001300800F0003100151170089100D9
:100B6800151413080800031020008C1E031400300D
:100B7800093D08002000A801A901AA018431A32485
:100B880008003100151795127030920008003100E6
:0C0B98001517951270309200080008003C
:020000040001F9
:08000E00ECFFFEFFFFDFFFFF26
:00000001FF
