:0400000080316E28B5
:100008007E14803120007F08F20011191111911D12
:10001800692891112400971F45289616141C6628F4
:10002800941A24281108F1007108F700F8018231A8
:100038001C228031003A031966282400961266288B
:100048007718662879087802031833281108F10010
:100058007808203E860087017108810096120130D9
:10006800F1007108F80778087906031D6628F80179
:1000780082314F228031003A0319662824009616EF
:100088006628151E771C662878087906031D5628E9
:100098007908031D161B532883312B238031F9015E
:1000A8002400652879087802031865287808203E16
:1000B80086008701010891000130F1007108F807F6
:1000C800662891012400151E151672082000FF00ED
:1000D8007E10090080317028F701F801F901FA0152
:1000E80020308400003085001530833125237E10B0
:1000F8002000813162297A082000B5003508B60051
:10010800412922000E128E100E138D1283311E23E8
:100118008031D030F3000730F4008231EE22803194
:10012800212983310E2380319C2883311723803184
:10013800003A03194E29212922008D168331042300
:100148008031C830F3000030F4008231EE22803173
:1001580021290C1DB7286430F3000030F4008231E7
:10016800EE228031212983310E238031003A031D8C
:100178005F294E2983310E238031003A0319CC2898
:100188000A30F3000030F4008231EE228031212958
:1001980020000C194E2905303D2983310E2380316A
:1001A800003A03194E2922000E16FA30F3000030E7
:1001B800F4008231EE228031212983310E238031EF
:1001C800003A031D5F2920000E1D4E290530F3005B
:1001D8000030F4008231EE228031212983310E2350
:1001E8008031003A03194E2922000E179630F30089
:1001F8000030F4008231EE228031212983310E2330
:100208008031003A03194E2922008E140D303C2902
:1002180021008E138331042380316430F3000030D1
:10022800F4008231EE228031212983310E2380317E
:10023800003A03194E2921008E1701302000B5001D
:100248003508FA074E29833117238031003A0319FC
:100258004E290B303C2922000E12833104238031B1
:100268006430F3000030F4008231EE228031073030
:100278002000B5003508FA004E297A08FF3E031C15
:100288005F2984000E30040203185F298231043587
:10029800D23E820007307A02031C552920000C1D2B
:1002A8005F2909307A02031C080020000E19080093
:1002B800FA01FA0A0800FA01FA0A080001303200C5
:1002C8009900FF3021008C00FF308D00FF308E0038
:1002D80023008C018D018E012000B4018319031EB7
:1002E800802931009B187A292000341431001B180A
:1002F80096292000B4149629031A85293415640018
:10030800962931009B198A292000B41531001B1940
:100318008F292000341631001B1B94299B1F962916
:100328002000B41622008E1321008E1722000E1210
:1003380021000E1222008E118E160C1621008E112D
:100348008E120C1222008E1021008E1022000E1325
:1003580021000E1322008D1221008D1220008D1F06
:10036800B82922008D17BA2922008D138D13210078
:100378008D13063020009F00FE309E009D01250051
:100388009F019F3093009F3097009F302600970071
:10039800C03025009100C0309500C030260095007F
:1003A8003D002308E0390D38A3002508E0390C3852
:1003B800A5001408E0390F389400833104238131F3
:1003C800200097019501FA3096004430980097175D
:1003D80030309B00C1309C00403024009200E03057
:1003E80093002000911124009417013096000730E3
:1003F80097003630950019303D009C0018309E005B
:1004080021009115111504302000B7003708FA00B3
:10041800B3010B178B1780317F20813120003308FF
:1004280003190F2A3308B7003708FA00B3010F2A57
:100438003F2A0330F0007008F9004D2A0330F0001D
:100448007008F90020003008F0007008A00031089A
:10045800F0007008A1003208F0007008A2004D2AD0
:1004680020003408F0007008A000F901F90A4D2AAC
:10047800F901003008007708403A03191D2A013AAB
:100488000319222A033A0319392A013A0319342A8B
:100498003C2A01300800782A20002008F000700863
:1004A800B0002108F0007008B1002208F0007008C0
:1004B800B2008231AA228231802A20002008031D3E
:1004C800672A0B306B2A2003031D6F2A0E30F000B9
:1004D8007008B300802A02302006031D802AB30169
:1004E800B30A802A013008007708403A0319502AD5
:1004F800023A0319612A762A0030080020003109DF
:1005080025009200200030092500960020003209BD
:100518002600960020003008031D952A21008E151C
:10052800972A21008E1120003108031D9E2A2100E0
:100538008E16A02A21008E1220003208031DA72A39
:1005480021000C16080021000C12080020003109B7
:10055800250092002000300925009600200032096D
:100568002600960020003008031DBD2A21008E15A4
:10057800BF2A21008E1120003108031DC62A210040
:100588008E16C82A21008E1220003208031DCF2A99
:1005980021000C16080021000C1208008031852863
:1005A80080319528803199288031A0288031AD2864
:1005B8008031BE288031D1288031E1288031F2286D
:1005C8008131022981310C29813119298131272969
:1005D80081312F2920001B1011100130F335F40D43
:1005E800890BF22A7308F5007508F6007609990058
:1005F8007408F5007508F60076099A001B140800BF
:10060800FF30F30073082000B000B101B20182315D
:100618008222080020001118132B00300800111046
:100628001B1001300800031020008C1E031400303A
:10063800093D08002000B001B101B20182318222D7
:100648000800640080010131890B262B0034080062
:020000040001F9
:08000E00ECFFF2FFFFDFFFFF32
:00000001FF
