:0400000080316E28B5
:100008007E14803120007F08F50011191111911D0F
:10001800692891112400971F45289616141C6628F4
:10002800941A24281108F4007408F800F9018231A0
:10003800DB228031003A03196628240096126628CC
:10004800781866287A087902031833281108F4000A
:100058007908203E860087017408810096120130D5
:10006800F4007408F90779087A06031D6628F9016F
:10007800833183238031003A0319662824009616B9
:100088006628151E781C662879087A06031D5628E6
:100098007A08031D161B5328853174258031FA010F
:1000A800240065287A087902031865287908203E13
:1000B80086008701010891000130F4007408F907EF
:1000C800662891012400151E151675082000FF00EA
:1000D8007E1009008031702860308400203085004F
:1000E8009030FE000130FF0085311C258031F6017B
:1000F800F701F801F901FA01203084000030850089
:100108001730FE000030FF0085311C257E102000CE
:100118008131D72920003308BB003B08BC0098294F
:1001280021008E1722000E128E100E138D128531AB
:1001380061258031B8302000B7000B30B800843119
:10014800F42480315229853149258031003A031938
:10015800A529522985315A258031003A031DB8282E
:10016800200032080319BD2801302000BB003B08DD
:10017800B307B201A52922000E128E100E138D1698
:1001880085313F258031C8302000B7000030B800E5
:100198008431F424803152290C1DDA286430B700E8
:1001A8000030B8008431F424803152298531492542
:1001B8008031003A0319A52908300E2985314925CF
:1001C8008031003A0319F1280A302000B7000030C6
:1001D800B8008431F4248031522920000C19A52953
:1001E80005307C29853149258031003A0319A52934
:1001F80022000E16FA302000B7000030B800843113
:10020800F42480315229853149258031003A031977
:10021800102909302000BA2920000E1DA529053013
:10022800B7000030B8008431F42480315229853178
:1002380049258031003A0319A52922000E17963066
:100248002000B7000030B8008431F42480315229EE
:10025800853149258031003A0319A52922008E14D9
:100268008431962480310D307B2921008E1385310D
:100278003F25803164302000B7000030B800843159
:10028800F42480315229853149258031003A0319F7
:10029800A52921008E178431962480310130200051
:1002A800BB003B08B307A52985315A258031003AA0
:1002B800031967290B302000BB003B08B300063048
:1002C800BB003B08B5008431DB248031A52922001E
:1002D8000E128E100E1385313F25803164302000B8
:1002E800B7000030B8008431F42480310730200092
:1002F800BB003B08B300A529853149258031003A68
:100308000319A52920000E1D8F290E30BB003B08BC
:10031800B30002309229B301B30A0330BB003B0893
:10032800B500A5290A30BA293308FF3E031C9629CF
:1003380084000F3004020318962984310435BD3E29
:10034800820007302000330203180E1CB429360A35
:100358000319B2290130BB003B08B6070730BA2998
:100368000730330203180C19BE290830BB003B08BC
:10037800B500D42909303302031C08000F303306B6
:10038800031908000E190800EC30B7001330B80044
:100398008431F4240F302000BB003B08B300080070
:1003A800B301B30A0800013032009900FF30210080
:1003B8008C00FF308D00FF308E0023008C018D01F2
:1003C8008E012000B4018319031EF52931009B1802
:1003D800EF292000341431001B180B2A2000B41414
:1003E8000B2A031AFA29341564000B2A31009B19C9
:1003F800FF292000B41531001B19042A20003416E7
:1004080031001B1B092A9B1F0B2A2000B41622004F
:100418008E1321008E1722000E1221000E122200C8
:100428008E118E160C1621008E118E120C122200BF
:100438008E1021008E1022000E1321000E132200B0
:100448008D1221008D1220008D1F2D2A22008D175C
:100458002F2A22008D1321008D13063020009F00C3
:10046800FE309E009D014F3028009700FA3096001C
:10047800950125009F019F3093009F3097009F3082
:1004880026009700C03025009100C0309500C0308C
:10049800260095003D002308E0390D38A300250803
:1004A800E0390C38A5001408E0390F38940085317C
:1004B8003F2581312000AE01B001AD018D1F2D1403
:1004C800853168258131023085313425813120001C
:1004D800BD003D08AF002F0A031D762AAD142D1468
:1004E80022008D1390302000AB000130AC00970142
:1004F8009501FA30960044309800971730309B00E9
:10050800C1309C00403024009200E030930020006D
:100518009111240094170130960007309700363067
:10052800950019303D009C0018309E00210091155F
:10053800111504302000BD003D08B300B10103309F
:10054800BD003D08B500B201B60108302100970092
:100558000B178B17640080318E2081312000310801
:100568000319BB2A3108BD003D08B300B1010310CF
:100578002D1C0314031CC32A22008D17C52A220030
:100588008D13023020003006031DCF2A85310A253D
:1005980081310330D62A03303006031DAE2A853157
:1005A800282581312000BD003D08B000AE2A742BFB
:1005B8000330652B0330F1007108FA002000280889
:1005C800F1007108A0002908F1007108A1002A08AB
:1005D800F1007108A200812B20003508F100710894
:1005E800A0006E2B7608F10071082000A0007708A3
:1005F800F1007108A100382B20002D08F1007108C6
:10060800A0006E2B200030086B2B02302000300237
:10061800031C382B00300800023020003002031C75
:10062800172B0030080085316E25823120002E08F6
:10063800853152258231F10071082000A000013077
:10064800F1007108AE076E2B023020003002031C47
:100658006E2B0030080020002B08F1007108A00064
:100668002C08F1007108A1000230652B0130200030
:100678002C02903003192B02031C442B0030080075
:10068800781C6E2B6030F1002030F2002B087107C7
:1006980086002C08723D87000108F3007308A0004B
:1006A8000130AB070030AC3D6E2B7630F10071089D
:1006B8002000A0003430F1007108A100A201A301BC
:1006C8000430F1007108FA00812B20003408F10091
:1006D8007108A000FA01FA0A812BFA01003008001B
:1006E8007808C03E031C712B8400143004020318E0
:1006F800712B84310435463E820001300800FF2BFF
:1007080020002008F0007008A8002108F0007008F8
:10071800A9002208F0007008AA0084316E248331F1
:100728001C2C20002008F0007008B5003503031DBC
:100738009F2B0B30A42B02303506031DA82B0E303F
:10074800F0007008B1001C2C03303506031DAF2BD8
:10075800B101B10A1C2C04303506031D1C2CB10153
:10076800B10AB201B20A1C2C20002008F00070085F
:10077800F6002108F0007008F7001C2C2000200368
:10078800031DC82B2D141C2C02302006031D1C2C05
:100798002D101C2C20002108F0007008AF0002303A
:1007A800F0007008B00020002008F0007008AE00CB
:1007B8001C2C20002008F0007008AB002108F00075
:1007C8007008AC001C2C6030F0002030F1002000D4
:1007D8002B087007F2002C08713DF30072088600A0
:1007E80073088700200881000130AB070030AC3D5A
:1007F8001C2C013008007808403A0319842B023A6F
:100808000319952B063A0319B82B023A0319C22B80
:100818000E3A0319CE2B023A0319D72B063A0319BD
:10082800DD2B023A0319E72B1E3A03191C2CFD2B6A
:10083800003008002000290925009200200028091E
:100848002500960020002A09260096002000280886
:10085800031D312C21008E15332C21008E11200010
:100868002908031D3A2C21008E163C2C21008E12DB
:1008780020002A08031D432C21000C160800210023
:100888000C1208008231DC2A8231DE2A8231F52AF4
:100898008231F02A8231FF2A8231F62A8331052BF0
:1008A8008331002B8331092B8331062B8331282B8D
:1008B8008331102B8331382B83312F2B83313A2B03
:1008C80083313A2B8331642B8331592B83316E2B3F
:1008D8008331692B2000290925009200200028096E
:1008E8002500960020002A092600960020002808E6
:1008F800031D812C21008E15832C21008E112000D0
:100908002908031D8A2C21008E168C2C21008E129A
:1009180020002A08031D932C21000C160800210032
:100928000C12080085316825843100308531342562
:1009380084312000B8003808F600013085313425AC
:1009480084312000B8003808F700760A031DB32C5C
:10095800770A031DB32C4C30F6001D30F700053024
:100968007702DC300319760203180800F601F70154
:100978000800803194288031A7288031AE28803142
:10098800BF288031D0288031E2288031F628813193
:10099800072981311B2981312C298131392981315C
:1009A80047298131582981316B298131802976087D
:1009B8007704031908002000921CE72C92100130DC
:1009C800F6020030F73B76087704031D08000E3066
:1009D800B7003708B3000530B7003708B50008007E
:1009E80020001B1011100130B735B80D890BF82CF9
:1009F8003708B9003908BA003A0999003808B90027
:100A08003908BA003A099A001B140800853168258C
:100A18003100151520002E083100910020002F0804
:100A28003100930055309600AA30960095140800BE
:100A38006400800101310130FE020030FF3B7F0875
:100A48007E04031900341D2D3100951C2D2D033013
:100A580008001511951D322D0130080000300800DE
:100A68002000B7003100151120003708310091002F
:100A7800151413080800FF302000B7003708A80035
:100A8800A901AA0184311E240800200011184E2D46
:100A98000030080011101B1001300800F000310070
:100AA8001511700891001514130808000310200090
:100AB8008C1E03140030093D08002000A801A9017C
:100AC800AA0184311E2408003100151795127030D0
:100AD8009200080031001517951270309200080036
:020AE800080004
:020000040001F9
:08000E00ECFFFFFFFFFFFFFF05
:00000001FF
