:0400000080316E28B5
:100008007E14803120007F08F50011191111911D0F
:10001800692891112400971F45289616141C6628F4
:10002800941A24281108F4007408F800F9018231A0
:10003800AF228031003A03196628240096126628F8
:10004800781866287A087902031833281108F4000A
:100058007908203E860087017408810096120130D5
:10006800F4007408F90779087A06031D6628F9016F
:10007800833147238031003A0319662824009616F5
:100088006628151E781C662879087A06031D5628E6
:100098007A08031D161B532885311D258031FA0166
:1000A800240065287A087902031865287908203E13
:1000B80086008701010891000130F4007408F907EF
:1000C800662891012400151E151675082000FF00EA
:1000D8007E1009008031702860308400203085004F
:1000E8009030FE000130FF008431C5248031F601D4
:1000F800F701F801F901FA01203084000030850089
:100108001530FE000030FF008431C5247E10200029
:100118008131B02920003208B9003908BA007529A0
:1001280022000E128E100E138D1285310A25803191
:10013800D0302000B5000730B600843188248031E3
:100148003F298431F2248031AC2885310325803160
:10015800003A031982293F2922000E128E100E132D
:100168008D168431E8248031C8302000B500003075
:10017800B6008431882480313F290C1DCB28643097
:10018800B5000030B6008431882480313F2984319D
:10019800F2248031003A031DAC2982298431F224EB
:1001A8008031003A0319E1280A302000B5000030F8
:1001B800B6008431882480313F2920000C19822917
:1001C80005306E298431F2248031003A03198229DE
:1001D80022000E16FA302000B5000030B600843137
:1001E800882480313F298431F2248031003A031D6C
:1001F800AC2920000E1D82290530B5000030B6005C
:100208008431882480313F298431F2248031003AB6
:100218000319822922000E1796302000B5000030FD
:10022800B6008431882480313F298431F22480311A
:10023800003A0319822922008E148331D123803198
:100248000D30622921008E138431E8248031643016
:100258002000B5000030B6008431882480313F2961
:100268008431F2248031003A0319822921008E1743
:100278008331D123803101302000B9003908B20719
:100288008229853103258031003A031950290B3022
:100298002000B9003908B20084319E2480318229B7
:1002A80022000E128431E824803164302000B50029
:1002B8000030B600843188248031073020006E2950
:1002C8008431F2248031003A0319822920000E1D5E
:1002D80072290E30B9003908B2008229B201B20A77
:1002E80082293208FF3E031CAC2984000F30040227
:1002F8000318AC29843104356A3E82000530200099
:10030800320203180E1C9029340A0319AC29013053
:10031800B9003908B407AC2907303202031C962902
:100328000C1DAC2909303202031C08000F303206BC
:10033800031908000E190800EC30B5001330B60098
:10034800843188240F302000B9003908B200080031
:100358002000B201B20A0800013032009900FF30D3
:1003680021008C00FF308D00FF308E0023008C01AF
:100378008D018E012000B3018319031ECE2931009F
:100388009B18C8292000331431001B18E4292000C9
:10039800B314E429031AD32933156400E42931007E
:1003A8009B19D8292000B31531001B19DD2920001D
:1003B800331631001B1BE2299B1FE4292000B316CA
:1003C80022008E1321008E1722000E1221000E1219
:1003D80022008E118E160C1621008E118E120C1210
:1003E80022008E1021008E1022000E1321000E1301
:1003F80022008D1221008D1220008D1F062A220056
:100408008D17082A22008D1321008D130630200035
:100418009F00FE309E009D014F3028009700FA3063
:100428009600950125009F019F3093009F3097000B
:100438009F3026009700C03025009100C0309500FD
:10044800C030260095003D002308E0390D38A30090
:100458002508E0390C38A5001408E0390F38940055
:100468008431E82481312000AE01B001AD018D1F37
:100478002D1485311125813102308431DD248131FB
:100488002000BB003B08AF002F0A031D4F2AAD1404
:100498002D1422008D1390302000AB000130AC00E9
:1004A80097019501FA30960044309800971730303C
:1004B8009B00C1309C00403024009200E030930043
:1004C80020009111240094170130960007309700FE
:1004D8003630950019303D009C0018309E002100F0
:1004E8009115111504302000BB003B08B200B10182
:1004F800B4010830210097000B178B176400803176
:100508008E2081312000310803198F2A3108BB0061
:100518003B08B200B10103102D1C0314031C972AD9
:1005280022008D17992A22008D13023020003006F0
:10053800031DA32A8431B32481310330AA2A03304E
:100548003006031D822A8431D12481312000BB006A
:100558003B08B000822A382B0330102B0330F100FF
:100568007108FA0020002808F1007108A000290885
:10057800F1007108A1002A08F1007108A200452BBA
:1005880020003308F1007108A000322B7608F10032
:1005980071082000A0007708F1007108A1000F2B56
:1005A80020002D08F1007108A000322B200030082F
:1005B800F1007108A000322B023020003002031C29
:1005C8000F2B00300800023020003002031CEE2AF6
:1005D8000030080085311725823120002E0884312B
:1005E800FB248231F10071082000A0000130F100E5
:1005F8007108AE07322B023020003002031C322B68
:100608000030080020002B08F1007108A0002C0819
:10061800F1007108A1000230F1007108FA00452BC1
:10062800013020002C02903003192B02031C1E2BD2
:1006380000300800781C322B6030F1002030F200C6
:100648002B08710786002C08723D87000108F3000B
:100658007308A0000130AB070030AC3DFA01FA0A7C
:10066800452BFA01003008007808C03E031C352BE2
:100678008400103004020318352B843104354A3EB7
:10068800820001300800B52B20002008F000700817
:10069800A8002108F0007008A9002208F0007008DE
:1006A800AA00843122248331CF2B20002008031D87
:1006B8005F2B0B30632B2003031D672B0E30F000DC
:1006C8007008B100CF2B02302006031DCF2BB101DB
:1006D800B10ACF2B20002008F0007008F60021088E
:1006E800F0007008F700CF2B20002003031D7E2B9D
:1006F8002D14CF2B02302006031DCF2B2D10CF2B0E
:1007080020002108F0007008AF000230F0007008E7
:10071800B00020002008F0007008AE00CF2B2000A9
:100728002008F0007008AB002108F0007008AC0049
:10073800CF2B6030F0002030F10020002B0870072C
:10074800F2002C08713DF3007208860073088700D8
:10075800200881000130AB070030AC3DCF2B0130C1
:1007680008007808403A0319482B023A0319592B14
:10077800063A03196E2B023A0319782B0E3A03191D
:10078800842B023A03198D2B063A0319932B023A4C
:1007980003199D2BB32B00300800853111258331B7
:1007A80000308431DD2483312000B6003608F6009D
:1007B80001308431DD2483312000B6003608F7008B
:1007C800760A031DEE2B770A031DEE2B4C30F6003C
:1007D8001D30F70005307702DC3003197602031864
:1007E80008004C30F6001D30F700080020002909E9
:1007F80025009200200028092500960020002A09DB
:100808002600960020002808031D0D2C21008E15B7
:100818000F2C21008E1120002908031D162C210001
:100828008E16182C21008E1220002A08031D1F2C5A
:1008380021000C16080021000C12080020002909CC
:1008480025009200200028092500960020002A098A
:100858002600960020002808031D352C21008E153F
:10086800372C21008E1120002908031D3E2C210061
:100878008E16402C21008E1220002A08031D472CBA
:1008880021000C16080021000C1208008231B02A41
:100898008231B22A8231C92A8231C42A8231D32ACA
:1008A8008231CA2A8231D92A8231D42A8231E02A75
:1008B8008231DA2A8231FF2A8231E72A83310F2BEB
:1008C8008331062B8331142B8331142B80319428E8
:1008D8008031A5288031A9288031B0288031C128ED
:1008E8008031D2288031E6288031F72881310829E3
:1008F80081311929813126298131342981314529CC
:10090800813154298131642920001B1011100130D4
:10091800B535B60D890B8C2C3508B7003708B800EB
:10092800380999003608B7003708B80038099A001E
:100938001B14080076087704031908002000921C8D
:10094800AA2C92100130F6020030F73B76087704A3
:10095800031D08000E30B5003508B20008008531C7
:1009680011253100151520002E08310091002000B6
:100978002F083100930055309600AA309600951440
:1009880008006400800101310130FE020030FF3BA5
:100998007F087E0403190034C62C3100951CD62C20
:1009A800033008001511951DDB2C013008000030BC
:1009B80008002000B500310015112000350831006D
:1009C8009100151413080800FF302000B500350801
:1009D800A800A901AA018331FA23080020001118F0
:1009E800F72C0030080011101B1001300800F0002F
:1009F8003100151170089100151413080800031030
:100A080020008C1E03140030093D08002000A801B6
:100A1800A901AA018331FA2308003100151795129C
:100A2800703092000800310015179512703092004E
:040A380008000800AA
:020000040001F9
:08000E00ECFFFFFFFFFFFFFF05
:00000001FF
