:0400000080316E28B5
:100008007E14803120007F08F50011191111911D0F
:10001800692891112400971F45289616141C6628F4
:10002800941A24281108F4007408F800F9018231A0
:10003800EB228031003A03196628240096126628BC
:10004800781866287A087902031833281108F4000A
:100058007908203E860087017408810096120130D5
:10006800F4007408F90779087A06031D6628F9016F
:1000780083319D238031003A03196628240096169F
:100088006628151E781C662879087A06031D5628E6
:100098007A08031D161B53288531DF258031FA01A4
:1000A800240065287A087902031865287908203E13
:1000B80086008701010891000130F4007408F907EF
:1000C800662891012400151E151675082000FF00EA
:1000D8007E1009008031702860308400203085004F
:1000E8009030FE000130FF00853187258031F60110
:1000F800F701F801F901FA01203084000030850089
:100108001B30FE000030FF00853187257E1020005F
:100118008131DB2920003508BF003F08C0009C2939
:1001280021008E1722000E128E100E138D128531AB
:10013800CC258031B8302000BB000B30BC008531A5
:100148005F2580314D298531B4258031003A031966
:10015800A9294D293819B3283403031DB7280130BC
:10016800BF003F08B507B401A92922000E128E105E
:100178000E138D168531AA25803120003811C8301C
:10018800BB000030BC0085315F2580314D290C1D36
:10019800D5286430BB000030BC0085315F25803134
:1001A8004D298531B4258031003A0319A929083031
:1001B80009298531B4258031003A0319EC280A3021
:1001C8002000BB000030BC0085315F2580314D29FF
:1001D80020000C19A929053073298531B4258031EF
:1001E800003A0319A92922000E16FA302000BB0094
:1001F8000030BC0085315F2580314D298531B4251B
:100208008031003A03190B2909302000BE2920004B
:100218000E1DA9290530BB000030BC0085315F25C3
:1002280080314D298531B4258031003A0319A92937
:1002380022000E1796302000BB000030BC0085312C
:100248005F2580314D298531B4258031003A031965
:10025800A92922008E148531012580310D3072299B
:1002680021008E138531AA25803164302000BB001F
:100278000030BC0085315F2580314D298531B4259A
:100288008031003A0319A92921008E1785310125EB
:10029800803101302000BF003F08B507A929381D6B
:1002A8005E2938110B30BF003F08B5000630BF008B
:1002B8003F08B700853146258031A92922000E1252
:1002C8008E100E138531AA25803164302000BB00C2
:1002D8000030BC0085315F25803107302000BF0029
:1002E8003F08B500A9298531B4258031003A0319A2
:1002F800A92920000E1D932902303406031D8D29DB
:10030800B501B50A0A30BF003F08B700B401B40A06
:10031800A9290E30BF003F08B50002309629B50163
:10032800B50A0330BF003F08B700A9290B30BE2922
:100338003508FF3E031C9A2984000F300402031875
:100348009A2985310435283E82000730200035027D
:1003580003180E1CB8293A0A0319B6290130BF0040
:100368003F08BA070730BE290730350203180C19B1
:10037800C2290830BF003F08B700D8290930350224
:10038800031C08000F303506031908000E19080071
:100398007030BB001730BC0085315F250F3020005E
:1003A800BF003F08B5000800B501B50A08000130D4
:1003B80032009900FF3021008C00FF308D00FF30A3
:1003C8008E0023008C018D018E012000B601831957
:1003D800031EF92931009B18F32920003614310037
:1003E8001B180F2A2000B6140F2A031AFE293615E7
:1003F80064000F2A31009B19032A2000B61531002A
:100408001B19082A2000361631001B1B0D2A9B1FBA
:100418000F2A2000B61622008E1321008E17220004
:100428000E1221000E1222008E118E160C162100BB
:100438008E118E120C1222008E1021008E102200B6
:100448000E1321000E1322008D1221008D122000A0
:100458008D1F312A22008D17332A22008D13210087
:100468008D13063020009F00FE309E009D014F3006
:1004780028009700FA30960095014E309E00FA3019
:100488009D009C0125009F019F3093009F3097009D
:100498009F3026009700C03025009100C03095009D
:1004A800C030260095003D002308E0390D38A30030
:1004B8002508E0390C38A5001408E0390F389400F5
:1004C8008531AA2581312000B001B201AF018D1F0D
:1004D8002F148531D3258131023085319F25813113
:1004E8002000C1004108B100310A031D7F2AAF1462
:1004F8002F1422008D1390302000AB000130AC0087
:10050800B801B901AD01AE0197019501FA30960025
:1005180044309800971730309B00C1309C00403021
:1005280024009200E03093002000911124009417D9
:1005380001309600073097003630950019303D009D
:100548009C0018309E0021009115111504302000E0
:10055800C1004108B500B3010330C1004108B7002C
:10056800B401BA010830210097000B178B176400FB
:1005780084314724813180318E2081312000330835
:100588000319CB2A3308C1004108B500B301031091
:100598002F1C0314031CD32A22008D17D52A2200EE
:1005A8008D13023020003206031DDF2A85317525A0
:1005B80081310330E62A03303206031DBB2A853118
:1005C800932581312000C1004108B200BB2A8E2B3F
:1005D8000330872B0330F1007108FA002000280847
:1005E800F1007108A0002908F1007108A1002A088B
:1005F800F1007108A2009B2B20003708F100710858
:10060800A0007A2B7608F10071082000A000770876
:10061800F1007108A100862B20002F08F100710855
:10062800A0007A2B20003208772B023020003202FB
:10063800031C862B00300800023020003202031C05
:10064800272B003008008531D92582312000300859
:100658008531BD258231F10071082000A0000130EC
:10066800F1007108B0077A2B023020003202031C17
:100678007A2B0030080020002B08F1007108A00038
:100688002C08F1007108A100862B013020002C02F3
:10069800903003192B02031C532B00300800781CE0
:1006A8007A2B6030F1002030F2002B0871078600A9
:1006B8002C08723D87000108F3007308A000013080
:1006C800AB070030AC3D7A2B7630F1007108200082
:1006D800A0003530F1007108A100A201A301043087
:1006E800872B20003608F1007108A000FA01FA0AE9
:1006F8009B2B20002D08F1007108A0002E08F100A6
:100708007108A1000230F1007108FA009B2BFA0170
:10071800003008007808C03E031C8B2B840016307C
:10072800040203188B2B84310435853E8200013086
:100738000800222C20002008F0007008A8002108DA
:10074800F0007008A9002208F0007008AA0084319F
:10075800D9248331452C20002008F0007008B70008
:100768003703031DB92B0B30BE2B02303706031D90
:10077800C22B0E30F0007008B300452C033037064A
:10078800031DC92BB301B30A452C04303706031DDA
:10079800D22BB301B30AB401B40A452C0A30370688
:1007A800031D452C0230F0007008B400452C2000D1
:1007B8002008F0007008F6002108F0007008F70023
:1007C800452C20002003031DEB2B2F14452C023051
:1007D8002006031D452C2F10452C20002108F00071
:1007E8007008B1000230F0007008B2002000200844
:1007F800F0007008B000452C20002008F0007008B8
:10080800AB002108F0007008AC00452C6030F00007
:100818002030F10020002B087007F2002C08713DF1
:10082800F3007208860073088700200881000130F1
:10083800AB070030AC3D452C013008007808403A41
:1008480003199E2B023A0319AF2B063A0319DB2B27
:10085800023A0319E52B0E3A0319F12B023A031950
:10086800FA2B063A0319002C023A03190A2C1E3AED
:100878000319452C023A0319452C063A0319452C4D
:10088800202C003008002000921F0800921339081D
:100898000319572C0130BB003B08B9071430390243
:1008A800031C0800B901381C5C2C2000B8145E2C0D
:1008B8002000B8108531C52584312000BB003808D8
:1008C8003B06FE393B06B800B81C381C732C38159B
:1008D800B901B90A1430AD000030AE000800B818EC
:1008E8003818792CB901B90A0800381C08002D0AF3
:1008F80003192E0A031908000130AD070030AE3D78
:1009080008008231EC2A8231EE2A8331052B8331AB
:10091800002B83310F2B8331062B8331152B833129
:10092800102B8331192B8331162B8331382B8331CC
:10093800202B8331482B83313F2B8331492B833143
:10094800492B8331732B8331682B83317A2B833185
:10095800752B8331862B83317D2B200029092500B7
:100968009200200028092500960020002A09260068
:10097800960020002808031DC42C21008E15C62CC3
:1009880021008E1120002908031DCD2C21008E1670
:10099800CF2C21008E1220002A08031DD62C2100FE
:1009A8000C16080021000C12080020002909250057
:1009B8009200200028092500960020002A09260018
:1009C800960020002808031DEC2C21008E15EE2C23
:1009D80021008E1120002908031DF52C21008E16F8
:1009E800F72C21008E1220002A08031DFE2C21005E
:1009F8000C16080021000C1208008531D32585311A
:100A0800003085319F2585312000BC003C08F60068
:100A1800013085319F2585312000BC003C08F70056
:100A2800760A031D1E2D770A031D1E2D4C30F60075
:100A38001D30F70005307702DC3003197602031801
:100A48000800F601F7010800803194288031A728B2
:100A58008031AE288031B9288031CB288031DD281B
:100A68008031F128813102298131162981312729E4
:100A780081313429813142298131532981316229D7
:100A88008131772976087704031908002000921C21
:100A9800522D92100130F6020030F73B76087704A9
:100AA800031D08000E30BB003B08B5000530BB0035
:100AB8003B08B700080020001B1011100130BB359F
:100AC800BC0D890B632D3B08BD003D08BE003E09E7
:100AD80099003C08BD003D08BE003E099A001B1461
:100AE80008008531D3253100151520003008310064
:100AF8009100200031083100930055309600AA304B
:100B08009600951408006400800101310130FE024E
:100B18000030FF3B7F087E0403190034882D310024
:100B2800951C982D033008001511951D9D2D013039
:100B38000800003008002000BB003100151120001B
:100B48003B0831009100151413080800FF302000FD
:100B5800BB003B08A800A901AA018431B124080000
:100B680020001118B92D0030080011101B10013099
:100B78000800F000310015117008910015141308D1
:100B88000800031020008C1E03140030093D0800E3
:100B98002000A801A901AA018431B124080031006C
:100BA800151795127030920008003100151795122C
:080BB8007030920008000800F3
:020000040001F9
:08000E00ECFFFFFFFFFFFFFF05
:00000001FF
