:0400000080316E28B5
:100008007E14803120007F08F50011191111911D0F
:10001800692891112400971F45289616141C6628F4
:10002800941A24281108F4007408F800F9018231A0
:10003800B1228031003A03196628240096126628F6
:10004800781866287A087902031833281108F4000A
:100058007908203E860087017408810096120130D5
:10006800F4007408F90779087A06031D6628F9016F
:10007800833156238031003A0319662824009616E6
:100088006628151E781C662879087A06031D5628E6
:100098007A08031D161B5328853131258031FA0152
:1000A800240065287A087902031865287908203E13
:1000B80086008701010891000130F4007408F907EF
:1000C800662891012400151E151675082000FF00EA
:1000D8007E1009008031702860308400203085004F
:1000E8009030FE000130FF008431D9248031F601C0
:1000F800F701F801F901FA01203084000030850089
:100108001530FE000030FF008431D9247E10200015
:100118008131B22920003208B9003908BA0077299C
:1001280022000E128E100E138D1285311E2580317D
:10013800D0302000B5000730B60084319C248031CF
:100148003F29853106258031AC2885311725803136
:10015800003A031984293F2922000E128E100E132B
:100168008D168431FC248031C8302000B500003061
:10017800B60084319C2480313F290C1DCB28643083
:10018800B5000030B60084319C2480313F29853188
:1001980006258031003A031DAE29842985310625BC
:1001A8008031003A0319E1280A302000B5000030F8
:1001B800B60084319C2480313F2920000C19842901
:1001C80005307029853106258031003A03198429C4
:1001D80022000E16FA302000B5000030B600843137
:1001E8009C2480313F29853106258031003A031D42
:1001F800AE2920000E1D84290530B5000030B60058
:1002080084319C2480313F29853106258031003A8C
:100218000319842922000E1796302000B5000030FB
:10022800B60084319C2480313F29853106258031F0
:10023800003A0319842922008E1484313324803132
:100248000D30642921008E138431FC248031643000
:100258002000B5000030B60084319C2480313F294D
:10026800853106258031003A0319842921008E172B
:1002780084313324803101302000B9003908B207B5
:100288008429853117258031003A031950290B300C
:100298002000B9003908B2008431B22480318429A1
:1002A80022000E128E100E138431FC24803164302B
:1002B8002000B5000030B60084319C24803107301E
:1002C80020007029853106258031003A03198429D8
:1002D80020000E1D74290E30B9003908B200842997
:1002E800B201B20A84293208FF3E031CAE298400F9
:1002F8000F3004020318AE29843104357E3E820093
:1003080007302000320203180E1C9229340A031900
:10031800AE290130B9003908B407AE2907303202D6
:10032800031C98290C1DAE2909303202031C080051
:100338000F303206031908000E190800EC30B5001A
:100348001330B60084319C240F302000B9003908DE
:10035800B20008002000B201B20A080001303200E1
:100368009900FF3021008C00FF308D00FF308E0097
:1003780023008C018D018E012000B3018319031E17
:10038800D02931009B18CA292000331431001B18CA
:10039800E6292000B314E629031AD5293315640089
:1003A800E62931009B19DA292000B31531001B1901
:1003B800DF292000331631001B1BE4299B1FE62987
:1003C8002000B31622008E1321008E1722000E1271
:1003D80021000E1222008E118E160C1621008E118D
:1003E8008E120C1222008E1021008E1022000E1385
:1003F80021000E1322008D1221008D1220008D1F66
:10040800082A22008D170A2A22008D1321008D1335
:10041800063020009F00FE309E009D014F302800CE
:100428009700FA309600950125009F019F309300B0
:100438009F3097009F3026009700C030250091001C
:10044800C0309500C030260095003D002308E039F3
:100458000D38A3002508E0390C38A5001408E03948
:100468000F3894008431FC2481312000AE01B001A2
:10047800AD018D1F2D148531252581310230843140
:10048800F12481312000BB003B08AF002F0A031D77
:10049800512AAD142D1422008D1390302000AB008A
:1004A8000130AC0097019501FA309600443098006D
:1004B800971730309B00C1309C00403024009200D8
:1004C800E030930020009111240094170130960029
:1004D800073097003630950019303D009C001830E1
:1004E8009E0021009115111504302000BB003B0827
:1004F800B200B101B4010830210097000B178B1727
:10050800640080318E208131200031080319912A3E
:100518003108BB003B08B200B10103102D1C0314C5
:10052800031C992A22008D179B2A22008D13023062
:1005380020003006031DA52A8431C72481310330E9
:10054800AC2A03303006031D842A8431E524813126
:100558002000BB003B08B000842A472B0330402B07
:100568000330F1007108FA0020002808F100710832
:10057800A0002908F1007108A1002A08F1007108FB
:10058800A200542B20003308F1007108A000312B81
:100598007608F10071082000A0007708F1007108C2
:1005A800A100112B20002D08F1007108A000312BAB
:1005B80020003008F1007108A000312B0230200023
:1005C8003002031C112B00300800023020003002DA
:1005D800031CF02A0030080085312B2582312000C9
:1005E8002E0885310F258231F10071082000A00006
:1005F8000130F1007108AE07312B023020003002C3
:10060800031C312B0030080020002B08F100710872
:10061800A0002C08F1007108A1000230402B013025
:1006280020002C02903003192B02031C1D2B0030D4
:100638000800781C312B6030F1002030F2002B08C4
:10064800710786002C08723D87000108F3007308C3
:10065800A0000130AB070030AC3DFA01FA0A542B78
:100668007630F10071082000A0003330F1007108E5
:10067800A100A201A3010430F1007108FA00542B73
:10068800FA01003008007808C03E031C442B84009F
:10069800123004020318442B843104355A3E820078
:1006A80001300800C42B20002008F0007008A800C2
:1006B8002108F0007008A9002208F0007008AA00BC
:1006C80084310B248331E12B20002008031D6E2B7D
:1006D8000B30722B2003031D762B0E30F0007008B0
:1006E800B100E12B02302006031DE12BB101B10A54
:1006F800E12B20002008F0007008F6002108F00027
:100708007008F700E12B20002003031D8D2B2D140A
:10071800E12B02302006031DE12B2D10E12B2000D8
:100728002108F0007008AF000230F0007008B00037
:1007380020002008F0007008AE00E12B20002008FF
:10074800F0007008AB002108F0007008AC00E12B45
:100758006030F0002030F10020002B087007F20014
:100768002C08713DF3007208860073088700200882
:1007780081000130AB070030AC3DE12B01300800AF
:100788007808403A0319572B023A0319682B063A9E
:1007980003197D2B023A0319872B0E3A0319932B61
:1007A800023A03199C2B063A0319A22B023A0319A1
:1007B800AC2B1E3A0319E12BC22B00300800200095
:1007C800290925009200200028092500960020000C
:1007D8002A092600960020002808031DF62B210070
:1007E8008E15F82B21008E1120002908031DFF2BE0
:1007F80021008E16012C21008E1220002A08031DCC
:10080800082C21000C16080021000C1208002000FA
:1008180029092500920020002809250096002000BB
:100828002A092600960020002808031D1E2C2100F6
:100838008E15202C21008E1120002908031D272C3D
:1008480021008E16292C21008E1220002A08031D53
:10085800302C21000C16080021000C1208008531EC
:100868002525843100308431F12484312000B600FC
:100878003608F60001308431F12484312000B600B6
:100888003608F700760A031D502C770A031D502CF2
:100898004C30F6001D30F70005307702DC300319C4
:1008A800760203180800F601F70108008231B22A1F
:1008B8008231B42A8231CB2A8231C62A8231D52AA2
:1008C8008231CC2A8231DB2A8231D62A8231E22A4D
:1008D8008231DC2A8331012B8231E92A8331112BC1
:1008E8008331082B8331132B8331132B83313F2B17
:1008F8008331342B803194288031A5288031A92870
:100908008031B0288031C1288031D2288031E62852
:100918008031F72881310829813119298131262927
:100928008131342981314529813154298131662920
:1009380020001B1011100130B535B60D890BA02C05
:100948003508B7003708B800380999003608B700E5
:100958003708B80038099A001B140800760877048D
:10096800031908002000921CBE2C92100130F602D8
:100978000030F73B76087704031D08000E30B500F9
:100988003508B200080085312525310015152000ED
:100998002E083100910020002F08310093005530B7
:1009A8009600AA3096009514080064008001013171
:1009B8000130FE020030FF3B7F087E04031900343B
:1009C800DA2C3100951CEA2C033008001511951D0E
:1009D800EF2C01300800003008002000B50031007D
:1009E800151120003508310091001514130808006E
:1009F800FF302000B5003508A800A901AA018331FD
:100A0800E3230800200011180B2D003008001110F6
:100A18001B1001300800F00031001511700891001A
:100A2800151413080800031020008C1E031400304E
:100A3800093D08002000A801A901AA018331E32388
:100A48000800310015179512703092000800310027
:0C0A58001517951270309200080008007D
:020000040001F9
:08000E00ECFFFFFFFFFFFFFF05
:00000001FF
