:0400000080316E28B5
:100008007E14803120007F08F50011191111911D0F
:10001800692891112400971F45289616141C6628F4
:10002800941A24281108F4007408F800F90183319F
:10003800A1238031003A0319662824009612662805
:10004800781866287A087902031833281108F4000A
:100058007908203E860087017408810096120130D5
:10006800F4007408F90779087A06031D6628F9016F
:100078008231EC228031003A031966282400961652
:100088006628151E781C662879087A06031D5628E6
:100098007A08031D161B53288531FD258031FA0186
:1000A800240065287A087902031865287908203E13
:1000B80086008701010891000130F4007408F907EF
:1000C800662891012400151E151675082000FF00EA
:1000D8007E1009008031702860308400203085004F
:1000E8009030FE000130FF008531A5258031F601F2
:1000F800F701F801F901FA01203084000030850089
:100108001C30FE000030FF008531A5257E10200040
:100118008131DB2920003508C0004008C1009C2936
:1001280021008E1722000E128E100E138D128531AB
:10013800EA258031B8302000BC000B30BD00853185
:100148007D2580314D298531D2258031003A03192A
:10015800A9294D293819B3283403031DB7280130BC
:10016800C0004008B507B401A92922000E128E105C
:100178000E138D168531C825803120003811C830FE
:10018800BC000030BD0085317D2580314D290C1D16
:10019800D5286430BC000030BD0085317D25803114
:1001A8004D298531D2258031003A0319A929083013
:1001B80009298531D2258031003A0319EC280A3003
:1001C8002000BC000030BD0085317D2580314D29DF
:1001D80020000C19A929053073298531D2258031D1
:1001E800003A0319A92922000E16FA302000BC0093
:1001F8000030BD0085317D2580314D298531D225DE
:100208008031003A03190B2909302000BE2920004B
:100218000E1DA9290530BC000030BD0085317D25A3
:1002280080314D298531D2258031003A0319A92919
:1002380022000E1796302000BC000030BD0085312A
:100248007D2580314D298531D2258031003A031929
:10025800A92922008E148531382580310D30722964
:1002680021008E138531C825803164302000BC0000
:100278000030BD0085317D2580314D298531D2255D
:100288008031003A0319A92921008E1785313825B4
:10029800803101302000C0004008B507A929381D69
:1002A8005E2938110E30C0004008B5000630C00085
:1002B8004008B7008431BD248031A92922000E12DC
:1002C8008E100E138531C825803164302000BC00A3
:1002D8000030BD0085317D25803107302000C00009
:1002E8004008B500A9290E1D8C2902303406031DCB
:1002F8008629B501B50A0A30C0004008B700B40124
:10030800B40AA9290E30C0004008B5000230962969
:100318008531D2258031003A0319A9292000B50179
:10032800B50A0330C0004008B700A9290C30BE291F
:100338003508FF3E031C9A2984000F300402031875
:100348009A29853104355F3E820007302000350246
:1003580003180E1CB8293B0A0319B6290130C0003E
:100368004008BB070730BE290730350203180C19AF
:10037800C2290830C0004008B700D8290930350222
:10038800031C08000F303506031908000E19080071
:100398001030BC002730BD0085317D250F3020008E
:1003A800C0004008B5000800B501B50A08000130D2
:1003B80032009900FF3021008C00FF308D00FF30A3
:1003C8008E0023008C018D018E012000B601831957
:1003D800031EF92931009B18F32920003614310037
:1003E8001B180F2A2000B6140F2A031AFE293615E7
:1003F80064000F2A31009B19032A2000B61531002A
:100408001B19082A2000361631001B1B0D2A9B1FBA
:100418000F2A2000B61622008E1321008E17220004
:100428000E1221000E1222008E118E160C162100BB
:100438008E118E120C1222008E1021008E102200B6
:100448000E1321000E1322008D1221008D122000A0
:100458008D1F312A22008D17332A22008D13210087
:100468008D13063020009F00FE309E009D014F3006
:1004780028009700FA30960095014E309E00FA3019
:100488009D009C0125009F019F3093009F3097009D
:100498009F3026009700C03025009100C03095009D
:1004A800C030260095003D002308E0390D38A30030
:1004B8002508E0390C38A5001408E0390F389400F5
:1004C8008531C82581312000B001B201AF018D1FEF
:1004D8002F148531F125813102308531BD258131D7
:1004E8002000C2004208B100310A031D7F2AAF1460
:1004F8002F1422008D1390302000AB000130AC0087
:10050800B801B901AD01AE0197019501FA30960025
:1005180044309800971730309B00C1309C00403021
:1005280024009200E03093002000911124009417D9
:1005380001309600073097003630950019303D009D
:100548009C0018309E0021009115111504302000E0
:10055800C2004208B500B3010330C2004208B70028
:10056800B401BA01BB010830210097000B178B17A3
:10057800640084315324813180318E208131200000
:1005880033080319CC2A3308C2004208B500B30166
:1005980003102F1C0314031CD42A22008D17D62AFB
:1005A80022008D13023020003206031DE02A853117
:1005B800932581310330E72A03303206031DBC2A14
:1005C8008531B12581312000C2004208B200BC2A21
:1005D8007C2B20002008F0007008A8002108F000FB
:1005E8007008A9002208F0007008AA0085311025BB
:1005F80082319F2B20002008F0007008B7003703D5
:10060800031D082B0B300D2B02303706031D112B51
:100618000E30F0007008B3009F2B03303706031D1F
:10062800182BB301B30A9F2B04303706031D212B67
:10063800B301B30AB401B40A9F2B0A303706031D6D
:100648009F2B0230F0007008B4009F2B2000200878
:10065800F0007008F6002108F0007008F700BA01F1
:100668009F2B20002003031D3B2B2F149F2B0230B0
:100678002006031D9F2B2F109F2B20002108F00020
:100688007008B1000230F0007008B20020002008A5
:10069800F0007008B0009F2B20002008F0007008C0
:1006A800AB002108F0007008AC009F2B6030F00010
:1006B8002030F10020002B087007F2002C08713D53
:1006C800F300720886007308870020088100013053
:1006D800AB070030AC3D9F2B20002008F0007008CD
:1006E800AD002108F0007008AE009F2B0130080013
:1006F8007808403A0319ED2A023A0319FE2A063A05
:1007080003192A2B023A0319352B0E3A0319412BE8
:10071800023A03194A2B063A0319502B023A0319D5
:100728005A2B1E3A03199F2B023A03199F2B063A9C
:100738000319702B7A2B00300800442C03303D2C11
:100748000330F1007108FA0020002808F100710850
:10075800A0002908F1007108A1002A08F100710819
:10076800A200512C20003708F1007108A000302C9D
:100778007608F10071082000A0007708F1007108E0
:10078800A1003C2C20002F08F1007108A000302C9B
:10079800200032082D2C023020003202031C3C2C91
:1007A80000300800023020003202031CDD2B00302C
:1007B80008008531F7258331200030088531DB2595
:1007C8008331F10071082000A0000130F1007108A8
:1007D800B007302C023020003202031C302C0030CD
:1007E800080020002B08F1007108A0002C08F10077
:1007F8007108A1003C2C013020002C029030031914
:100808002B02031C092C00300800781C302C6030A7
:10081800F1002030F2002B08710786002C08723D89
:1008280087000108F3007308A0000130AB0700300F
:10083800AC3D302C7630F10071082000A000373034
:10084800F1007108A100A201A30104303D2C200091
:100858003608F1007108A000FA01FA0A512C2000AC
:100868002D08F1007108A0002E08F1007108A10000
:100878000230F1007108FA00512CFA01003008002A
:100888007808C03E031C412C84001630040203186B
:10089800412C84310435913E82000130080020004B
:1008A800921F0800921339080319632C0130BC0009
:1008B8003C08B90714303902031C0800B901381C78
:1008C800682C2000B8146A2C2000B8108531E32564
:1008D80084312000BC0038083C06FE393C06B800CC
:1008E800B81C381C7F2C3815B901B90A1430AD0072
:1008F8000030AE000800B8183818852CB901B90ABC
:100908000800381C08002D0A03192E0A03190800CC
:100918000130AD070030AE3D08008331A22B833192
:10092800A42B8331BB2B8331B62B8331C52B833169
:10093800BC2B8331CB2B8331C62B8331CF2B833117
:10094800CC2B8331EE2B8331D62B8331FE2B833195
:10095800F52B8331FF2B8331FF2B8431292C8431F4
:100968001E2C8431302C84312B2C84313C2C843146
:10097800332C8B13760877040319E62C2000921C7D
:10098800CA2C92100130F6020030F73B7608770443
:10099800031DE62C3A080319D72CB501B50AB40192
:1009A800B40A0B30DC2C0E30BC003C08B500053016
:1009B800BC003C08B7003A0A0319E62C0130BC0019
:1009C8003C08BA078B170800200029092500920067
:1009D800200028092500960020002A0926009600F4
:1009E80020002808031DFB2C21008E15FD2C21005A
:1009F8008E1120002908031D042D21008E16062DB6
:100A080021008E1220002A08031D0D2D21000C162E
:100A1800080021000C120800200029092500920076
:100A2800200028092500960020002A0926009600A3
:100A380020002808031D232D21008E15252D2100B7
:100A48008E1120002908031D2C2D21008E162E2D15
:100A580021008E1220002A08031D352D21000C16B6
:100A6800080021000C1208008531F125853100307D
:100A78008531BD2585312000BD003D08F6000130D7
:100A88008531BD2585312000BD003D08F700760A77
:100A9800031D552D770A031D552D4C30F6001D30CA
:100AA800F70005307702DC300319760203180800D6
:100AB800F601F7010800803194288031A728803199
:100AC800AE288031B9288031CB288031DD288031AB
:100AD800F128813102298131162981312729813173
:100AE8003429813142298131532981316229813167
:100AF800772920001B1011100130BC35BD0D890B62
:100B0800812D3C08BE003E08BF003F0999003D0802
:100B1800BE003E08BF003F099A001B14080085313B
:100B2800F125310015152000300831009100200012
:100B380031083100930055309600AA30960095147C
:100B480008006400800101310130FE020030FF3BE3
:100B58007F087E0403190034A62D3100951CB62D9C
:100B6800033008001511951DBB2D01300800003019
:100B780008002000BC003100151120003C0831009D
:100B88009100151413080800FF302000BC003C0831
:100B9800A800A901AA018431E8240800200011183E
:100BA800D72D0030080011101B1001300800F0008C
:100BB800310015117008910015141308080003106E
:100BC80020008C1E03140030093D08002000A801F5
:100BD800A901AA018431E8240800310015179512EB
:100BE800703092000800310015179512703092008D
:040BF80008000800E9
:020000040001F9
:08000E00ECFFFFFFFFFFFFFF05
:00000001FF
